S00D00004156525F432E737265638C
S11300000C9434000C9449000C9449000C9449005D
S11300100C9449000C9449000C9449000C94490038
S11300200C9449000C9449000C9449000C94490028
S11300300C9449000C9449000C9449000C94490018
S11300400C9449000C9449000C9449000C94490008
S11300500C9449000C9449000C9449000C944900F8
S11300600C9449000C94490011241FBECFEFD8E032
S1130070DEBFCDBF11E0A0E0B1E0ECEAF1E002C0E8
S113008005900D92A830B107D9F70E94C6000C94D0
S1130090D4000C940000982F907F95B92B982A9A3D
S11300A0EFEEF0E03197F1F700C000002A98FAE192
S11300B0FA95F1F700C020E1829FC001112485B9AF
S11300C02B982A9A8FEE90E00197F1F700C0000078
S11300D02A98EFECF7E03197F1F700C0000008959B
S11300E02FE788E391E0215080409040E1F700C081
S11300F000008DEF84B982E00E944B0088E20E94E8
S11301004B008CE00E944B0081E00E944B0080E891
S11301100E944B000895982F907F95B92B9A2A9AA4
S1130120EFEEF0E03197F1F700C000002A98FAE111
S1130130FA95F1F700C020E1829FC001112485B92E
S11301402B9A2A9A8FEE90E00197F1F700C00000F5
S11301502A98EFECF7E03197F1F700C0000008951A
S113016081E00E944B0080E80E944B000895CF93E9
S1130170DF93EC018881882331F021960E948B0063
S113018089918111FBCFDF91CF9108951AB880EF47
S11301908BB90E9470008CE090E00E94B00080E077
S10F01A091E00E94B700FFCFF894FFCF5D
S10B01AC53656E6972750000D1
S9030000FC
