:100000000C9441000C945E000C945E000C945E0015
:100010000C945E000C945E000C945E000C945E00E8
:100020000C945E000C945E000C945E000C945E00D8
:100030000C945E000C945E000C945E000C945E00C8
:100040000C945E000C945E000C945E000C945E00B8
:100050000C945E000C945E000C945E000C945E00A8
:100060000C945E000C945E001A041D04200423040A
:10007000260429042C042F043204350438043B04DC
:100080003E0411241FBECFEFD8E0DEBFCDBF13E08A
:10009000A0E0B1E0E6E5F2E102C005900D92AC35DA
:1000A000B107D9F723E0ACE5B3E001C01D92A23758
:1000B000B207E1F70E9457040C9429090C94000040
:1000C000982F907F95B92B982A9AEFEEF0E0319710
:1000D000F1F700C000002A98FAE1FA95F1F700C0A4
:1000E00020E1829FC001112485B92B982A9A8FEEB6
:1000F00090E00197F1F700C000002A98EFECF7E0DC
:100100003197F1F700C0000008952FE788E391E0F0
:10011000215080409040E1F700C0000082E00E9442
:10012000600088E20E9460008CE00E94600081E034
:100130000E94600080E80E9460000895982F907FE0
:1001400095B92B9A2A9AEFEEF0E03197F1F700C0BB
:1001500000002A98FAE1FA95F1F700C020E1829FA9
:10016000C001112485B92B9A2A9A8FEE90E001974D
:10017000F1F700C000002A98EFECF7E03197F1F7B3
:1001800000C00000089581E00E94600080E80E94A5
:1001900060000895CF93DF93EC018881882331F0CC
:1001A00021960E949E0089918111FBCFDF91CF9112
:1001B0000895611107C08031F8F48F7080680E9443
:1001C00060001AC0613039F48031B0F48F70806CF7
:1001D0000E94600011C0623039F4803168F48F7081
:1001E00080690E94600008C0633031F4803120F4DF
:1001F0008F70806D0E9460008CE00E946000089506
:1002000029B130E020953095A90102C05595479558
:100210008A95E2F7CA0181709927089580916A034F
:1002200090916B03209162033091630382179307CF
:1002300059F0892B19F481E080936E038FE39CE9D8
:100240000197F1F700C0000080916A0390916B0361
:100250009093630380936203089580916803909163
:10026000690320915E0330915F038217930759F071
:10027000892B19F481E080936F038FE39CE9019748
:10028000F1F700C00000809168039091690390939A
:100290005F0380935E0308958091660390916703E6
:1002A00020916003309161038217930759F0892BE5
:1002B00019F481E080936D038FE39CE90197F1F7D6
:1002C00000C00000809166039091670390936103E2
:1002D0008093600308958091640390916503209159
:1002E0005C0330915D038217930759F0892B19F451
:1002F00081E080936C038FE39CE90197F1F700C0E4
:100300000000809164039091650390935D03809356
:100310005C03089561E086E00E94D90087E091E0E7
:100320000E94CA0062E084E00E94D9008DE091E062
:100330000E94CA00089560E084E00E94D90088E12C
:1003400091E00E94CA0061E080E00E94D9008091A3
:10035000000190910101019729F482E291E00E944D
:10036000CA0004C08FE291E00E94CA0062E080E00F
:100370000E94D9008091000190910101029729F417
:100380008CE391E00E94CA0004C085E593E00E94DE
:10039000CA0063E080E00E94D90080910001909142
:1003A0000101039729F483E491E00E94CA000895B3
:1003B0008DE491E00E94CA00089561E086E00E9409
:1003C000D90087E091E00E94CA0062E084E00E94C8
:1003D000D9008DE091E00E94CA00089560E084E0B9
:1003E0000E94D90087E591E00E94CA0061E080E0A8
:1003F0000E94D9008091000190910101019729F498
:1004000082E691E00E94CA0004C081E791E00E9468
:10041000CA0062E080E00E94D900809100019091C2
:100420000101029729F480E891E00E94CA0004C00B
:100430008FE891E00E94CA0063E080E00E94D9004A
:100440008091000190910101039729F48EE991E0D8
:100450000E94CA0008958BEA91E00E94CA000895A4
:1004600060E084E00E94D9008FE193E00E94CA001E
:1004700061E080E00E94D90080910001909101012B
:10048000019729F488EB91E00E94CA0004C080EC37
:1004900091E00E94CA0062E080E00E94D900809151
:1004A000000190910101029729F488EC91E00E94EB
:1004B000CA0004C082ED91E00E94CA0063E080E0BF
:1004C0000E94D9008091000190910101039729F4C5
:1004D0008CED91E00E94CA00089583EE91E00E94A5
:1004E000CA000895CF93DF9300D000D01F92CDB7FC
:1004F000DEB760E085E00E94D90081EC91E00E94C7
:10050000CA0062E085E00E94D9004AE050E0BE01E6
:100510006F5F7F4F80910201909103010E94E90873
:1005200080910201909103010E94CA000F900F90E8
:100530000F900F900F90DF91CF91089560E084E0CD
:100540000E94D90083ED91E00E94CA0062E085E03C
:100550000E94D90080910401909105010E94CA0077
:10056000089561E086E00E94D90087E091E00E9452
:10057000CA0062E084E00E94D9008DE091E00E9410
:10058000CA00089560E084E00E94D9008AEE91E0FC
:100590000E94CA0061E080E00E94D90080910001C1
:1005A00090910101019729F485EF91E00E94CA0022
:1005B00004C08DEF91E00E94CA0062E080E00E94DA
:1005C000D9008091000190910101029729F485E002
:1005D00092E00E94CA0004C08DE092E00E94CA002E
:1005E00063E080E00E94D9008091000190910101B8
:1005F000039729F485E192E00E94CA0008958DE1F5
:1006000092E00E94CA00089560E080E00E94D90054
:100610008091000190910101019729F485E292E017
:100620000E94CA0004C08DE292E00E94CA0061E00C
:1006300080E00E94D9008091000190910101029711
:1006400029F485E392E00E94CA0004C08DE392E0A1
:100650000E94CA0062E080E00E94D90080910001FF
:1006600090910101039729F485E492E00E94CA0069
:1006700004C08DE492E00E94CA0063E080E00E9422
:10068000D9008091000190910101049729F485E53A
:1006900092E00E94CA0008958DE592E00E94CA008F
:1006A000089560E084E00E94D90085E692E00E940F
:1006B000CA0061E080E00E94D90080910001909121
:1006C0000101019729F481E792E00E94CA0004C069
:1006D0008DE792E00E94CA0062E080E00E94D900AB
:1006E0008091000190910101029729F489E892E03C
:1006F0000E94CA0004C085E992E00E94CA0063E03B
:1007000080E00E94D900809100019091010103973F
:1007100029F481EA92E00E94CA0008958DEA92E0ED
:100720000E94CA00089560E080E00E94D900809194
:10073000000190910101019729F489EB92E00E9458
:10074000CA0004C085EC92E00E94CA0061E080E02B
:100750000E94D9008091000190910101029729F433
:1007600081ED92E00E94CA0004C08DED92E00E94EB
:10077000CA0062E080E00E94D9008091000190915F
:100780000101039729F489EE92E00E94CA0004C097
:1007900085EF92E00E94CA0063E080E00E94D900E9
:1007A0008091000190910101049729F481E093E088
:1007B0000E94CA0008958DE093E00E94CA00089547
:1007C00060E082E00E94D90089E193E00E94CA00C3
:1007D00061E080E00E94D9008091000190910101C8
:1007E000019729F488E293E00E94CA0004C084E3E0
:1007F00093E00E94CA0062E080E00E94D9008091EC
:10080000000190910101029729F480E493E00E9495
:10081000CA0008958EE493E00E94CA000895E09112
:100820007003F0917103ED30F10550F5EC5CFF4F72
:100830000C94E3080E948A0108950E949B01089588
:100840000E94DD0108950E94EE0108950E94300289
:1008500008950E94720208950E949E0208950E94C7
:10086000B10208950E94C20208950E9451030895A2
:100870000E94930308950E94040308950E94E003D8
:100880000895289A08958AE090E090930301809358
:10089000020182E390E0909305018093040181E0DE
:1008A000809306010E9441040895289808951AB87B
:1008B00080EF8BB98DEF84B928980E9485000F2EA8
:1008C000F9E0AF2EB12CF02D0F2EFAE04F2E512C67
:1008D000F02DC1E0D0E00F2EFBE06F2E712CF02D3B
:1008E0006894CC24C1F8D12C03E010E068948824EB
:1008F00083F8912C0F2EFCE0EF2EF12CF02D0E94AE
:100900000F0487E090E00E94000190936B038093B6
:100910006A0386E090E00E94000190936703809351
:10092000660385E090E00E94000190936903809344
:10093000680384E090E00E94000190936503809337
:1009400064030E940E010E942D010E944C010E942E
:100950006B0180916F038823A1F0809170039091C7
:100960007103019771F410926F03809100019091CF
:100970000101019709F015C41093010100930001D2
:1009800014C480916F03882391F08091700390913B
:100990007103029761F410926F03809104019091AA
:1009A000050101979093050180930401F7C380919D
:1009B0006F038823A1F080917003909171030397D6
:1009C00071F410926F0380910001909101010197E1
:1009D00009F0E0C31093010100930001DFC380918F
:1009E0006F038823C1F08091700390917103049785
:1009F00091F410926F038091000190910101019791
:100A000029F09093010180930001C8C31093010164
:100A100000930001C3C380916F038823C1F08091CC
:100A2000700390917103089791F410926F03809175
:100A3000000190910101019729F0909301018093A9
:100A40000001ACC31093010100930001A7C3809182
:100A50006F038823C1F0809170039091710309970F
:100A600091F410926F038091000190910101019720
:100A700029F0909301018093000190C3109301012C
:100A8000009300018BC380916F038823F9F080915C
:100A90007003909171030A97C9F410926F038091CB
:100AA0000001909101010197909301018093000151
:100AB000892B09F073C30E94C300109301010093B6
:100AC0000001B0927103A092700368C380916F031C
:100AD0008823F9F080917003909171030B97C9F40A
:100AE00010926F0380910001909101010197909302
:100AF000010180930001892B09F050C30E94C300BB
:100B00001093010100930001909271038092700391
:100B100045C380916F038823C1F080917003909149
:100B200071030C9791F410926F03809100019091E2
:100B30000101019729F090930101809300012EC3D8
:100B4000D0920101C092000129C380916E038823D5
:100B5000D1F080917003909171030197A1F41092EC
:100B60006E038091000190910101019684309105FE
:100B700029F0909301018093000154C1D0930101A9
:100B8000C09300014FC180916E03882391F0809142
:100B9000700390917103029761F410926E0380913B
:100BA0000401909105010196909305018093040141
:100BB00039C180916E038823D1F0809170039091A8
:100BC00071030397A1F410926E038091000190913C
:100BD000010101968430910529F0909301018093E1
:100BE000000120C1D0930101C09300011BC180917D
:100BF0006E038823D1F08091700390917103049764
:100C0000A1F410926E038091000190910101019670
:100C10008430910529F0909301018093000102C175
:100C2000D0930101C0930001FDC080916E03882321
:100C3000F9F080917003909171030897C9F41092B4
:100C40006E03809100019091010101969093010142
:100C500080930001049709F0E5C00E94C3007092E0
:100C6000710360927003D0930101C0930001DAC058
:100C700080916E038823F9F0809170039091710345
:100C80000997C9F410926E038091000190910101BF
:100C900001969093010180930001049709F0C2C06E
:100CA0000E94C3005092710340927003D0930101DF
:100CB000C0930001B7C080916E038823E1F080915A
:100CC0007003909171030A97B1F410926E038091B2
:100CD00000019091010101968530910529F09093D2
:100CE0000101809300019EC084E090E09093010197
:100CF0008093000197C080916E038823E1F080917A
:100D00007003909171030B97B1F410926E03809170
:100D100000019091010101968530910529F0909391
:100D20000101809300017EC084E090E09093010176
:100D30008093000177C080916E038823D1F0809169
:100D40007003909171030C97A1F410926E0380913F
:100D500000019091010101968330910529F0909353
:100D60000101809300015EC0109201011092000108
:100D700059C080916F03882399F0809170039091FE
:100D80007103069709F016C210926F038091040157
:100D9000909105010197909305018093040142C051
:100DA00080916E03882391F080917003909171037C
:100DB000069761F410926E038091040190910501F1
:100DC000019690930501809304012CC080916F03DC
:100DD000882399F08091700390917103059709F031
:100DE000ECC110926F038091020190910301019771
:100DF000909303018093020115C080916E038823B4
:100E000089F08091700390917103059759F41092C5
:100E10006E0380910201909103010196909303016A
:100E20008093020180916D03882309F4EFC0109232
:100E30006D038091700390917103009759F40E94A3
:100E4000C300D0937103C0937003D0930101C0938A
:100E50000001DCC08130910561F580910001909125
:100E600001018230910559F40E94C300109371036F
:100E700000937003D0930101C0930001C7C0833079
:100E8000910569F40E94C30084E090E0909371039F
:100E900080937003D0930101C0930001B7C0019704
:100EA00009F0B4C00E94C300D0927103C0927003D5
:100EB000ADC08230910539F40E94C300D093710314
:100EC000C0937003A3C08330910561F58091000148
:100ED000909101018130910549F40E94C30087E09F
:100EE00090E0909371038093700390C082309105DD
:100EF00059F40E94C3009092710380927003D093C2
:100F00000101C093000182C0039709F07FC00E94D5
:100F1000C300B0927103A0927003D0930101C093FB
:100F2000000174C08430910511F580910001909109
:100F300001018130910549F40E94C30085E090E0F1
:100F4000909371038093700361C08230910549F4DE
:100F50000E94C30086E090E0909371038093700339
:100F600055C0039709F052C00E9443044FC085301A
:100F7000910569F40E94C30084E090E090937103AE
:100F800080937003D0930101C09300013FC086306D
:100F9000910569F40E94C30084E090E0909371038E
:100FA00080937003D0920101C09200012FC087305E
:100FB000910559F40E94C3001093710300937003CC
:100FC000D0930101C093000121C08830910519F030
:100FD0008B30910559F40E94C300F0927103E092A6
:100FE0007003D0930101C093000110C00C9771F4FD
:100FF0008091000190910101019741F40E94C3008A
:1010000087E090E0909371038093700380916C036C
:10101000882309F474CC10926C0380917003909132
:101020007103009779F480910601882329F01092CA
:1010300006010E9455045ECC81E0809306010E9467
:10104000410458CC8130910539F40E94C3001092BC
:101050007103109270034ECC8230910559F40E94B6
:10106000C300D0937103C0937003D0930101C09368
:10107000000140CC8330910559F40E94C300D09305
:101080007103C0937003D0920101C092000132CC71
:101090008430910559F40E94C300D0937103C0932A
:1010A0007003109301010093000124CC8530910559
:1010B00069F40E94C30084E090E0909371038093F0
:1010C0007003D0930101C093000114CC86309105C8
:1010D00069F40E94C30084E090E0909371038093D0
:1010E0007003D0920101C092000104CC87309105B9
:1010F00059F40E94C3001093710300937003D093BE
:101100000101C0930001F6CB8830910559F40E948B
:10111000C3001093710300937003D0920101C09239
:101120000001E8CB8930910559F40E94C300109367
:101130007103009370031093010100930001DACB57
:101140008A30910559F40E94C300B0927103A092B5
:101150007003D0930101C0930001CCCB8B3091057B
:1011600059F40E94C3009092710380927003D0934F
:101170000101C0930001BECB0C9709F0BBCB0E94CC
:10118000C3009092710380927003D0930101C093C9
:101190000001B0CB909301018093000180916E0318
:1011A000F2CC909301018093000180916E03811134
:1011B000D6CC06C080916E0309CE80916E0332CEEC
:1011C00080916E03F6CCEE0FFF1F0590F491E02D99
:1011D00009944532510520F4423010F00C94F40883
:1011E000FB011082CB010895BB274A3031F49923CB
:1011F00022F4BDE2909581959F4F0C940009BB2786
:10120000FB015527AA27880F991FAA1FA41710F0C2
:10121000A41B83955051B9F7A05DAA3308F0A95DCE
:10122000A193009779F7B111B1931192CB010C946E
:101230001909DC01FC01672F71917723E1F73297DF
:1012400004C07C916D9370836291AE17BF07C8F3A1
:061250000895F894FFCFA1
:1012560001000A000A000131323A33340032392DD6
:1012660030342D32303231004D41494E204D454EFD
:1012760055003E4461746520262054696D65002042
:101286004461746520262054696D65003E416C6199
:10129600726D003E53657474696E67730020536502
:1012A6007474696E677300414C41524D204D454E32
:1012B60055003E536574204E657720416C61726D12
:1012C6000020536574204E657720416C61726D0075
:1012D6003E4D616E61676520416C61726D730020E1
:1012E6004D616E61676520416C61726D73003E41B0
:1012F6006C61726D20546F6E65730020416C617273
:101306006D20546F6E6573003E566F6C756D65008B
:1013160020566F6C756D65003E436F6E7472617317
:10132600740020436F6E7472617374003E5265736D
:1013360065740020526573657400414C41524D201E
:101346004C495354003E416C61726D310020416C32
:1013560061726D31003E416C61726D320020416CEC
:1013660061726D32003E416C61726D330020416CDA
:1013760061726D33003E416C61726D340020416CC8
:1013860061726D34003E416C61726D350020416CB6
:1013960061726D35003E416C61726D360020416CA4
:1013A60061726D36003E416C61726D370020416C92
:1013B60061726D3700414C41524D20544F4E45539A
:1013C600003E416C61726D746F6E65310020416C38
:1013D60061726D746F6E6531003E416C61726D7441
:1013E6006F6E65320020416C61726D746F6E65328E
:1013F600003E416C61726D746F6E65330020416C06
:1014060061726D746F6E6533003E416C61726D740E
:101416006F6E65340020416C61726D746F6E653459
:10142600003E416C61726D746F6E65350020416CD3
:1014360061726D746F6E6535003E416C61726D74DC
:101446006F6E65360020416C61726D746F6E653625
:10145600003E416C61726D746F6E65370020416CA1
:1014660061726D746F6E653700414C41524D205369
:10147600455454494E4753003E4564697420416CB7
:1014860061726D00204564697420416C61726D0063
:101496003E44656C65746520416C61726D00204444
:0C14A600656C65746520416C61726D001E
:00000001FF
