:100000000C9434000C9449000C9449000C94490061
:100010000C9449000C9449000C9449000C9449003C
:100020000C9449000C9449000C9449000C9449002C
:100030000C9449000C9449000C9449000C9449001C
:100040000C9449000C9449000C9449000C9449000C
:100050000C9449000C9449000C9449000C944900FC
:100060000C9449000C94490011241FBECFEFD8E036
:10007000DEBFCDBF11E0A0E0B1E0E8ECF1E002C0EE
:1000800005900D92A830B107D9F70E94BD000C94DD
:10009000E2000C940000982F907F9BB92C982B9A2B
:1000A00022E02A95F1F700C02B989AE19A95F1F792
:1000B00000C020E1829FC00111248BB92C982B9A9B
:1000C00082E08A95F1F700C02B988FEC97E00197BA
:1000D000F1F700C0000008952FE788E391E0215078
:1000E00080409040E1F700C0000082E00E944B0099
:1000F00088E20E944B008CE00E944B0081E00E944D
:100100004B0080E80E944B000895982F907F9BB988
:100110002C9A2B9AEFE1FEE43197F1F700C0000032
:100120002B98FAE1FA95F1F700C020E1829FC00117
:1001300011248BB92C9A2B9A8FE19EE40197F1F749
:1001400000C000002B98EFECF7E03197F1F700C00A
:100150000000089580E80E944B000895CF93DF933C
:10016000EC018881882331F021960E9485008991D5
:100170008111FBCFDF91CF9108958CE38AB983EC95
:100180008BB9249A239A209A0E946C000E94AA009C
:1001900080E091E00E94AE00289A2FEF89E698E176
:1001A000215080409040E1F700C0000028982FEFD8
:1001B00089E698E1215080409040E1F700C00000BE
:0801C000289AFFCFF894FFCF4D
:0801C80073656E697275000099
:00000001FF
